:101000005AEF13F000090243000201008032090484
:101010000000010202010005240010010424020264
:1010200005240600010524010001070582030800CC
:101030000209040100020A0000000705030208007B
:10104000000705810240000036034D00690063007F
:1010500072006F0063006800690070002000540097
:101060006500630068006E006F006C006F00670031
:1010700079002C00200049006E0063002E00120150
:10108000000202000008D8040A0000010102000169
:101090000E03550053004200740069006E00040303
:0410A000090400003F
:1025C0003CC001F03DC002F0120010EC13F0840E8C
:1025D000D56E1200E8CF01F001C0C9FFC7A0FED739
:1025E000C95012000201020118BF02D0010E1200F0
:1025F000000E12008B9CB00EEAEC12F0FF0EEAEC1B
:1026000012F0026E8B8C025012008B9CA00EEAEC32
:1026100012F0FF0EEAEC12F0026E8B8C02501200E8
:10262000000ED76E000ED66E000E3B6E000E3A6E98
:10263000000E3D6E000E3C6E1200E8CF03F08B9C46
:10264000020EEAEC12F00350EAEC12F00250EAEC4F
:1026500012F08B8C1200E8CF24F02450056E066A2D
:10266000076A086A236E020E096E235042EC14F0CA
:102670001200E8CF02F08B9C030EEAEC12F002503D
:10268000EAEC12F0FF0EEAEC12F0036E8B8C0350B2
:102690001200E8CF04F08B9C050EEAEC12F0045017
:1026A000EAEC12F00250EAEC12F00350EAEC12F0FD
:1026B0008B8C120001EE00F0830EEE6AE806FDE15D
:1026C00000EE30F0190EEE6AE806FDE1000EF86E3D
:1026D00000014FEF19F0E8CF06F006C002F02A0E15
:1026E0001DEC13F004C002F0290E1DEC13F005C020
:1026F00002F0280E1DEC13F0120009D003C0D9FF20
:1027000004C0DAFFDF50A7EC13F0034A042A03C029
:10271000D9FF04C0DAFFDF50D8B41200EFD70A5057
:10272000085C0B500958D8B004D008C00AF009C0A2
:102730000BF00AC040F00BC041F0000E396E07C02C
:1027400038F006C037F0D4EC14F00A501200E8CF8D
:1027500002F04450820AD8B412004550010D010124
:10276000000EF324D96E0101010EF420DA6E02C0CE
:10277000DFFF452A4550820AD8A404D0016E000E1E
:10278000456E0150442A12004750010D0201A00E6F
:10279000F324D96E0201020EF420DA6EDF50026ECD
:1027A000472A4750020122EE19F0DF620CD0080ED2
:1027B00002010201196F800E02010201186F016E01
:1027C000000E476E01500250120010D0770E3A26CC
:1027D000010E3B223C4A3D2A610E3C5CEA0E3D580C
:1027E000D8A004D0000E3D6E000E3C6E3AC001F041
:1027F0003BC002F0011E021E014A022AD6500126E9
:10280000D7500222780E015C010E0258D8A01200A7
:10281000DDD7E8CF08F00850FF0A026E200E1DEC4D
:1028200013F00450FF0AE00B026E210E1DEC13F0B2
:10283000076E000E026E0750220E1DEC13F0076E9D
:10284000000E026E0750230E1DEC13F00550FF0A18
:10285000026E240E1DEC13F00650FF0AE00B026E10
:10286000250E1DEC13F0076E000E026E0750260EAB
:102870001DEC13F0076E000E026E0750270E1DECC4
:1028800013F012000950010D0E0EF324D96E000E44
:10289000F420DA6E000EDF6E2FD005500F0B226E83
:1028A000090E226403D02250370F02D02250300F7D
:1028B000226E0950010D0E0EF324D96E000EF42085
:1028C000DA6E22C0DFFF05C00AF006C00BF007C0B9
:1028D0000CF008C00DF0050E05D0D8900D320C326A
:1028E0000B320A32E82EF9D70AC005F00BC006F009
:1028F0000CC007F00DC008F009060928D8A4CDD7F0
:10290000000E046E0E0E036E7DEC13F01200E8CF85
:1029100008F008C002F0000E1DEC13F00450E00BAC
:10292000026E010E1DEC13F008C002F0040E1DEC47
:1029300013F00450E00B8009026E050E1DEC13F03D
:1029400005C002F0080E1DEC13F00650E00B026EFD
:10295000090E1DEC13F005C002F0100E1DEC13F073
:102960000650E00B8009026E110E1DEC13F0076E8D
:10297000000E026E0750140E1DEC13F0076E000ED1
:10298000026E0750150E1DEC13F0076E000E026E5E
:102990000750180E1DEC13F0076E000E026E075064
:1029A000190E1DEC13F0120041504010D8B4120063
:1029B00040C004F041C005F0090E045C000E05584B
:1029C000D8A004D0000E056E080E046E016E000E35
:1029D000036E01501DD037C0F6FF38C0F7FF39C075
:1029E000F8FF0350010D0201880EF324D96E020195
:1029F000020EF420DA6E0800F5CFDFFF010E372655
:102A0000000E3822000E39224006D8A04106032AC3
:102A10000350016E026A0450015C05500258D8A0B0
:102A2000DAD704C005F20201020104AD05D0880E18
:102A300002010201046F1200C80E02010201046FBC
:102A40001200056E000E076E05500250800AF36EEC
:102A5000800EF35C000ED8B4015CD8B008D0016CD5
:102A6000021ED8B0022A056E010E076E05500450F2
:102A7000800AF36E800EF35C000ED8B4035CD8B00D
:102A800004D0036C041ED8B0042A04500310D8B438
:102A90001AD0056E010E066E055004D0D89003368C
:102AA0000436062A04AEFAD70350015C04500258DB
:102AB000D8A004D00350015E0450025AD8900432CA
:102AC0000332062EF1D70750D8B404D0016C021E91
:102AD000D8B0022A01C001F002C002F01200800E3C
:102AE00002010201006F080E02010201016F800E57
:102AF00002010201026F020E02010201036F000EC9
:102B000002010201046F080E02010201056F880E26
:102B100002010201066F020E02010201076F400E60
:102B2000020102010C6F400E020102010D6FA80E9E
:102B3000020102010E6F020E020102010F6F000E70
:102B400002010201146F080E02010201156F980EB6
:102B500002010201166F020E02010201176F800EC0
:102B600002010201186F080E02010201196FA00E86
:102B7000020102011A6F020E020102011B6F160E02
:102B80000F010F01536F1A0E0F010F01546F1A0E30
:102B90000F010F01556F1C0E0F010F01566F140E20
:102BA000616E080E646E1200E8CF0FF056D0100E62
:102BB000076E7E0E066E000E096E120E086E0DC0B8
:102BC0000AF00EC00BF08FEC13F01200100E076E1F
:102BD000050E066E000E096E430E086E0DC00AF05B
:102BE0000EC00BF08FEC13F01200100E076E9E0E4D
:102BF000066E000E096E040E086E0DC00AF00EC0BF
:102C00000BF08FEC13F01200100E076E480E066EDC
:102C1000000E096E360E086E0DC00AF00EC00BF0E5
:102C20008FEC13F01200100E076E900E066E000E61
:102C3000096E0E0E086E0DC00AF00EC00BF08FEC80
:102C400013F012000C50000AD8B4CFD7010AD8B440
:102C5000DBD7030AD8B4E7D70AD00F50010AD8B49B
:102C6000A6D7030AD8B4B2D7010AD8B4EBD7000E5E
:102C70001200446601D012003F503E10D8B412003A
:102C8000020102010CBF120044C00EF03F0E0E64A0
:102C900004D0086E3F0E0E6E08504450086E096A4C
:102CA000081E091E084A092A45500A6E0B6A085078
:102CB0000A2609500B22820E0A24016E000E0B20F8
:102CC000026E000E046E820E036E21EC15F00150B0
:102CD0000D6E086E000E0C6E085020D00D50010DC8
:102CE0000101000EF324D96E0101010EF420DA6E09
:102CF0000C50010D0201A80EF324E16E0201020E38
:102D0000F420E26EDFCFE7FF0D2A0D50820AD8A42F
:102D100004D0086E000E0D6E08500C2A0E500C5C8C
:102D2000D8A0DCD70EC00DF20E50445E02010201A5
:102D30000CAD05D0880E020102010C6F1200C80E06
:102D4000020102010C6F1200400EC76E220EC66E09
:102D5000C9CF05F0046E000E056E04509388949C54
:102D6000949E939C8B8C053EFED78B9CC00EEAEC08
:102D700012F08B8C053EFED7046E850E026E045059
:102D80000F0E1DEC13F0046E000E026E0450600E68
:102D90001DEC13F0046E000E026E0450700E1DEC5C
:102DA00013F0046E000E026E0450200E1DEC13F0A2
:102DB000046E000E026E0450210E1DEC13F0046E22
:102DC000000E026E0450220E1DEC13F0046E000E75
:102DD000026E0450230E1DEC13F0046E000E026E02
:102DE0000450240E1DEC13F0046E000E026E04500D
:102DF000250E1DEC13F0046E000E026E0450260E1C
:102E00001DEC13F0046E000E026E0450270E1DEC34
:102E100013F0046E030E026E04502B0E1DEC13F023
:102E2000120004C0D9FF05C0DAFF000EDE6E000EEE
:102E3000DE6E000EDE6E000EDD6EDD52DD526FD0F6
:102E400001C0D9FF02C0DAFFDF50D8A402D0000EC3
:102E5000120004C0D9FF05C0DAFF040ED890DE3698
:102E6000DE36DE36DD36D906D906E82EF7D701C0C4
:102E7000D9FF02C0DAFF2F0EDF640CD001C0D9FFEA
:102E800002C0DAFFDF50066E3A0E065CD8B002D000
:102E9000D00E25D001C0D9FF02C0DAFF400EDF649A
:102EA0000CD001C0D9FF02C0DAFFDF50066E470E1A
:102EB000065CD8B002D0C90E12D001C0D9FF02C042
:102EC000DAFF600EDF6427D001C0D9FF02C0DAFF4D
:102ED000DF50066E670E065CD8B01DD0A90E066ED8
:102EE000FF0E076E01C0D9FF02C0DAFFDF50086E87
:102EF000096A065008260750092204C0D9FF05C0F8
:102F0000DAFF0850DE260950DE22000EDE22DD2226
:102F1000DD52DD5202D0000E1200014A022A0306E1
:102F20000328D8A48DD7010E1200126E010E156E63
:102F3000125010C0D9FF11C0DAFFDF50720AD8B4A6
:102F40000CD010C0D9FF11C0DAFFDF50520AD8B43C
:102F500004D0126E000E156E125015B002D02090E3
:102F600001D0208010C0D9FF11C0DAFFDF50126EEF
:102F70005A0E125CD8B004D02082126E080E03D014
:102F80002092126E030E166E1250010E1024016E66
:102F9000000E1120026E16C003F0000E056E180E12
:102FA000046E11EC17F00009D8A402D0000E120034
:102FB00018C01CF019C01DF01AC01EF01BC01FF075
:102FC0001650126E136A010E1226000E13221250B2
:102FD0001024016E13501120026E146E010E036E48
:102FE0001450000E056E180E046E11EC17F0000957
:102FF000D8A402D0000E120018C021F020B03AD0A0
:10300000126E000E176E125031D01750020D16506E
:10301000126E136AF3501226F4501322020E122677
:10302000000E132212501024016E13501120026E54
:10303000146E020E036E1450000E056E180E046E10
:1030400011EC17F00009D8A402D0000E120017509E
:10305000010D060EF326000EF4221C0EF324D96E89
:10306000000EF420DA6E18C0DFFF172A2150175C1B
:10307000D8A0CBD7000E046E1C0E036E41EC18F0E6
:10308000120005EC13F00E6E20EE05F00350D92669
:103090000450DA22080EDF6402D0000E12000EB4D3
:1030A00003D0056E000E09D00EB803D0056E020ED7
:1030B00004D00EBC05D0056E040E0F6E055002D074
:1030C000000E12008B9C0F504009EAEC12F020EE2B
:1030D00004F00350D9260450DA22DFA268D003C0DE
:1030E000D9FF04C0DAFFDECF05F0DECF06F0DECF79
:1030F00007F0DECF08F0160E05D0D8900832073260
:1031000006320532E82EF9D70550EAEC12F003C07A
:10311000D9FF04C0DAFFDECF05F0DECF06F0DECF48
:1031200007F0DECF08F0110E05D0D8900832073234
:1031300006320532E82EF9D7030E051603C0D9FF73
:1031400004C0DAFFDECF09F0DECF0AF0DECF0BF0ED
:10315000DECF0CF00E0E05D0D8900C320B320A32B6
:103160000932E82EF9D70950E00B05100809EAECFE
:1031700012F003C0D9FF04C0DAFFDECF05F0DECFC6
:1031800006F0DECF07F0DECF08F006C005F007C07E
:1031900006F008C007F0086A0550EAEC12F003C018
:1031A000D9FF04C0DAFFDF50EAEC12F02DD003C0E3
:1031B000D9FF04C0DAFFDECF05F0DECF06F0DECFA8
:1031C00007F0DECF08F0040E05D0D89008320732A1
:1031D00006320532E82EF9D70550EAEC12F003C0AA
:1031E000D9FF04C0DAFFDF50056E050E066ED890D9
:1031F0000536062EFCD70550EAEC12F0000EEAEC7C
:1032000012F0000EEAEC12F020EE04F00350D92682
:103210000450DA22DFA00BD020EE05F00350D926AF
:103220000450DA22DF504009EAEC12F028D020EEF8
:1032300005F00350D9260450DA22DF50EAEC12F0F0
:10324000056E000E0D6E055010D00D50010D060ECE
:10325000F326000EF422F3500324D96EF450042018
:10326000DA6EDF50EAEC12F00D2A20EE05F0035082
:10327000D9260450DA22DF500D5CD8A0E6D78B8C1B
:1032800000F08B9C0F6604D0056E010E0F6E05508A
:103290000F508009EAEC12F08B8C010E1200A4ECA6
:1032A00016F0300ED36E000E7E6E000E7F6E939A77
:1032B0008A9AE5EC12F06FEC15F02E6E000E01010B
:1032C0000101EF6F2E50000E01010101E86F000EA9
:1032D0000101E76F64EC1AF0E5EC13F0F2EC12F088
:1032E0000009D8B446D0C4EC13F001010101EE6F1F
:1032F00001010101EE510D0AD8A41DD00101010107
:10330000EF51010D0101830EF324D96E0101010E6D
:10331000F420DA6E000EDF6E0101010E2B6E01014A
:10332000830E2A6EDCEC1CF02E6E000E01010101F2
:10333000EF6F2E501ED001010101EE510A0AD8B4E0
:1033400018D001010101EF51010D0101830EF32499
:10335000D96E0101010EF420DA6E0101EEC1DFFF2A
:10336000630E01010101EF5DD8B003D0010101013D
:10337000EF2B4350D8A482B490D00101010E066E09
:103380000101F00E056E7EEC1BF0E0EC12F001C0C6
:10339000E9F102C0EAF10101F4A103D02E6E720E30
:1033A00002D02E6E740E01010101EC6F2E5001014E
:1033B000F4A307D0200E01010101EC5F2E6E080E70
:1033C00002D02E6E030E01010101EB6F2E500101A0
:1033D0000101EC51A7EC13F0F0C105F0F1C106F0CA
:1033E000F2C107F0F3C108F0EBC109F042EC14F0B0
:1033F00001010101F551056E066A076A086A2E6E21
:10340000010E096E2E5042EC14F00101F4B12FD0E0
:103410002E6E000E01010101ED6F2E5020D0010132
:103420000101ED51010D060EF326000EF4220101FB
:10343000F00EF324D96E0101010EF420DA6EDF5094
:103440002E6E2E50056E066A076A086A2F6E020EEF
:10345000096E2F5042EC14F001010101ED2B010126
:103460000101F55101010101ED5DD8A0D8D701019D
:1034700001018251D8B40ED00101E9C105F001016A
:10348000EAC106F0076A086A2E6E040E096E2E5015
:1034900042EC14F00D0EA7EC13F0000EF36A436239
:1034A000F32AF3CF2EF02E3A2E468A502E18DF0B39
:1034B0002E188A6E80B60ED7000E646EFA0E00F0DB
:1034C000E82EFDD7FF0006D739EC16F062A61200F1
:1034D000636602D100C210F0D8901032D89010323A
:1034E0000F0E101610500D0AD8A4C9D0000E0201FC
:1034F0000201046F000E02010201046F80C210F08D
:10350000600E1016D8B43AD05BD082C20CF0020123
:10351000020187510E6E0201020186510D6E0201F9
:1035200002018351D4EC15F00009D8A4CCD08ED080
:1035300082C248F089D002010201046FC4D082C265
:1035400046F0000E3F6E010E3E6E7ED046C088F201
:1035500009D002010201056FC80EEDD7000E02016D
:103560000201886F010EF5D7000E02010201886F7B
:10357000000E02010201896F020EEBD70201020167
:103580008151000AD8B4F0D7010AD8B45DD0020A3C
:10359000D8B45AD0060AD8B4CBD7030AD8B4B5D712
:1035A0000E0AD8B4D3D7010AD8B4C9D7030AD8B4FD
:1035B000D5D71B0AD8B448D0030AD8B4D5D746D03B
:1035C00080C210F0600E10161050200AD8B444D0FB
:1035D0007AD0106E000E116E10500DD01150010DEA
:1035E0000201880EF324D96E0201020EF420DA6E75
:1035F000000EDF6E112A070E1164F0D7080EA9D74E
:10360000106E010E426E10501FD0106E000E126E22
:10361000105015D01250010D300EF324D96E000E4B
:10362000F420DA6E1250010D0201880EF324E16ECF
:103630000201020EF420E26EDFCFE7FF122A060E2F
:103640001264E8D7070E85D7000E83D7000E02015B
:103650000201056FCC0E6FD7020102018151000AF1
:10366000D8B4F2D7010AD8B4B4D7210AD8B4C8D78D
:10367000010AD8B4CAD7030AD8B4E6D7E7D742506C
:10368000D8B421D0106E000E136E105015D0135008
:10369000010D0201800EF324D96E0201020EF42006
:1036A000DA6E1350010D300EF324E16E000EF4209B
:1036B000E26EDFCFE7FF132A060E1364E8D7106E21
:1036C000000E426E1050080E02010201016F800EC2
:1036D00002010201006F0FD06350040AD8A40BD07E
:1036E0004850D8B406D048C05CFF106E000E486E3B
:1036F0001050D4EC14F0649862961200FAEC12F0B8
:10370000126E12AC03D0076E000E04D012AE12007F
:10371000076E040E116E075012C007F0D8900732E2
:10372000D8900732D8900732010E071620EE04F029
:103730000550D9260650DA22DF500718FE0B07186D
:10374000DF6E12C007F0073A0F0E0716010E0716BC
:1037500020EE04F00550D9260650DA220746DF5045
:103760000718FD0B0718DF6E8B9C11509009EAECCF
:1037700012F020EE04F00550D9260650DA22DFA21E
:1037800099D0FF0EEAEC12F0076E07C008F0096A44
:103790000A6A0B6A150ED890083609360A360B36B7
:1037A000E82EF9D705C0D9FF06C0DAFF08C0DEFF52
:1037B00009C0DEFF0AC0DEFF0BC0DDFFD906D90657
:1037C000FF0EEAEC12F0076E07500C6E0D6A0E6ADF
:1037D0000F6AE00E0C14076E000E0D14086E000E3A
:1037E0000E14096E000E0F140A6E0D0ED8900736D7
:1037F000083609360A36E82EF9D705C0D9FF06C0C3
:10380000DAFF0750DE120850DE120950DE120A50AD
:10381000DD12DD52DD52030E0C14076E000E0D1486
:10382000086E000E0E14096E000E0F140A6E08C00A
:103830000AF007C009F0086A076A05C0D9FF06C088
:10384000DAFF0750DE120850DE120950DE120A506D
:10385000DD12DD52DD52FF0EEAEC12F0076E07C0FA
:1038600008F0096A0A6A0B6A0AC00BF009C00AF07C
:1038700008C009F0086A05C0D9FF06C0DAFF085081
:10388000DE120950DE120A50DE120B50DD12DD523C
:10389000DD52FF0EEAEC12F0076E075005C0D9FFAB
:1038A00006C0DAFFDE12000EDE12DE12DD12DD527D
:1038B000DD523BD0FF0EEAEC12F0076E07C008F0B5
:1038C000096A0A6A0B6A030ED890083609360A3666
:1038D0000B36E82EF9D705C0D9FF06C0DAFF08C0BD
:1038E000DEFF09C0DEFF0AC0DEFF0BC0DDFFD90628
:1038F000D906FF0EEAEC12F0076E050E086ED8909E
:103900000732082EFCD7075005C0D9FF06C0DAFFE2
:10391000DE12000EDE12DE12DD12DD52DD52FF0E6F
:10392000EAEC12F0FF0EEAEC12F020EE05F0055082
:10393000D9260650DA22FF0EEAEC12F00F0BDF6EEA
:1039400020EE04F00550D9260650DA22DFB020D050
:10395000076E000E106E075011D01050010D060EAC
:10396000F326000EF422F3500524D96EF4500620FD
:10397000DA6EFF0EEAEC12F0DF6E102A20EE05F090
:103980000550D9260650DA22DF50105CD8A0E5D7C2
:103990008B8C116603D0076E010E02D0076E020EEB
:1039A000116E075011C002F0076E000E036E075033
:1039B0002C0E49EC13F012002C6E070E00010001D2
:1039C0009F6F2C50D9D2436615D36CD02C6EB60E97
:1039D000046E2C502D6E040E056E2D503B0E6BECBC
:1039E00013F059D12C6EB60E046E2C502D6E040EB1
:1039F000056E2D501D0E6BEC13F04DD12C6EB60ED6
:103A0000046E2C502D6E040E056E2D500B0E6BECBB
:103A100013F041D12C6EB60E046E2C502D6E040E98
:103A2000056E2D50050E6BEC13F035D12C6EAC0EDF
:103A3000046E2C502D6E030E056E2D50050E6BEC92
:103A400013F029D12C6EAC0E046E2C502D6E030E8B
:103A5000056E2D50020E6BEC13F01DD12C6E9B0EDB
:103A6000046E2C502D6E020E056E2D50010E6BEC67
:103A700013F011D12C6EA40E046E2C502D6E030E7B
:103A8000056E2D50000E6BEC13F005D12C6E9B0EC5
:103A9000046E2C502D6E020E056E2D50000E6BEC38
:103AA00013F0F9D020EE01F02A50D9262B50DA225B
:103AB000DF50300AD8B48AD7010AD8B493D7030AA2
:103AC000D8B49CD7010AD8B4A5D7070AD8B4AED7C2
:103AD000010AD8B4B7D7030AD8B4C0D7010AD8B4FA
:103AE000C9D70F0AD8B4D2D785D2436683D2010E84
:103AF0002A24016E000E2B20026E2C6E020E036E25
:103B00002C500001000E056E0001620E046E11ECD7
:103B100017F00009D8B46ED2030E2A24016E000EED
:103B20002B20026E2C6E020E036E2C500001000E34
:103B3000056E0001660E046E11EC17F00009D8B492
:103B400059D2050E2A24016E000E2B20026E2C6E17
:103B5000020E036E2C500001000E056E00016A0E6D
:103B6000046E11EC17F00009D8B444D266C004F01A
:103B70006AC005F00001000162516BEC13F08BD0BC
:103B8000010E2A24016E000E2B20026E2C6E020EF6
:103B9000036E2C500001000E056E00016E0E046EC7
:103BA00011EC17F00009D8B425D2000100016E51C4
:103BB00039EC13F000010001606F00010001605159
:103BC0002BEC13F068D0010E2A24016E000E2B207E
:103BD000026E2C6E020E036E2C500001000E056E5C
:103BE0000001720E046E11EC17F00009D8B402D275
:103BF000030E2A24016E000E2B20026E2C6E020E84
:103C0000036E2C500001000E056E0001760E046E4E
:103C100011EC17F00009D8B4EDD176C002F0000124
:103C2000000172511DEC13F036D0560EA7EC13F0C4
:103C3000010E2BEC13F0010E2BEC13F02CD0760EB2
:103C4000A7EC13F0010E2BEC13F0020E2BEC13F08B
:103C500022D04E0EA7EC13F0FF0E056EFF0E066E7F
:103C6000000E076E000E086E2C6E040E096E2C50AE
:103C700042EC14F010D04366BDD12C6EE00E026E03
:103C80002C502D6E000E036E2D500F0E49EC13F0CC
:103C900010EC13F014D02C6E0D0E000100019F6F7C
:103CA0002C50A8D14366A6D12C6EE00E026E2C508B
:103CB0002D6E400E036E2D500F0E49EC13F0010EC9
:103CC0001ED0436697D12C6EE00E026E2C502D6EE6
:103CD000600E036E2D500F0E49EC13F0020E0FD044
:103CE0004350D8B487D12C6EE00E026E2C502D6E4E
:103CF000800E036E2D500F0E49EC13F0000E436E34
:103D0000CAD74304D8A476D12BC011F02AC010F032
:103D100095EC17F00009D8B46DD12AC0D9FF2BC09B
:103D2000DAFFDF502C6E5A0E2C5CD8B004D05A0E3D
:103D3000A7EC13F0B0D77A0EA7EC13F0ACD72D0E8A
:103D400039EC13F0000100019E6F2C6E000E000193
:103D50000001616F2C50000100019EA103D0000101
:103D6000000161859EC02CF0C00E2C16D8B403D083
:103D70000001000161879EC02CF0180E2C16D8B4EB
:103D800003D000010001618B000100019EAB03D054
:103D900000010001618F460EA7EC13F00001000145
:103DA00061512BEC13F077D7010E2A24016E000E1F
:103DB0002B20026E2C6E010E036E2C500001000EA3
:103DC000056E00017A0E046E11EC17F00009D8B4EC
:103DD00011D1000100017D517A117B117C11D8B401
:103DE00002D0010E01D0000E01010101826F53D7F4
:103DF000436600D1010E2A24016E000E2B20026EB4
:103E00002C6E020E036E2C500001000E056E000198
:103E10007E0E046E11EC17F00009D8B4EBD0030E3F
:103E20002A24016E000E2B20026E2C6E020E036EF1
:103E30002C500001000E056E0001820E046E11EC84
:103E400017F00009D8B4D6D0050E2A24016E000E52
:103E50002B20026E2C6E020E036E2C500001000E01
:103E6000056E0001860E046E11EC17F00009D8B43F
:103E7000C1D0070E2A24016E000E2B20026E2C6E7C
:103E8000020E036E2C500001000E056E00018A0E1A
:103E9000046E11EC17F00009D8B4ACD082C004F065
:103EA00086C005F08AC006F0000100017E5109ECD1
:103EB00014F0F1D643669ED0010E2A24016E000E46
:103EC0002B20026E2C6E020E036E2C500001000E91
:103ED000056E00018E0E046E11EC17F00009D8B4C7
:103EE00089D0030E2A24016E000E2B20026E2C6E48
:103EF000020E036E2C500001000E056E0001920EA2
:103F0000046E11EC17F00009D8B474D0050E2A2401
:103F1000016E000E2B20026E2C6E020E036E2C50D2
:103F20000001000E056E0001960E046E11EC17F0F4
:103F30000009D8B45FD0070E2A24016E000E2B2092
:103F4000026E2C6E020E036E2C500001000E056EE8
:103F500000019A0E046E11EC17F00009D8B44AD093
:103F600092C004F096C005F09AC006F0000100016E
:103F70008E5187EC14F08FD62AC0D9FF2BC0DAFF00
:103F8000DF50430AD8B4ACD6050AD8B4D8D6010A53
:103F9000D8B4F6D50B0AD8B494D6010AD8B48AD7C7
:103FA000030AD8B456D6010AD8B465D61D0AD8B4C7
:103FB000A8D6010AD8B407D5070AD8B4A2D6020AEF
:103FC000D8B433D6010AD8B4FED50D0AD8B4ECD68D
:103FD000360AD8B467D6010AD8B40AD71F0AD8B4AB
:103FE00090D6010AD8B481D5070AD8B48AD6020A75
:103FF000D8B425D6000100019F51A7EC13F01200A0
:00000001FF
