:1010000091EF0FF009024300020100803209040051
:10101000000102020100052400100104240202055F
:1010200024060001052401000107058203080002CF
:1010300009040100020A000000070503020800007D
:101040000705810208000036034D00690063007245
:10105000006F0063006800690070002000540065A4
:1010600000630068006E006F006C006F006700791D
:10107000002C00200049006E0063002E00120100C9
:101080000202000008D8040A000001010200010E5B
:1010900003550053004200740069006E0004030908
:0210A00004004A
:101E90003EC001F03FC002F0120073EC0FF0840E60
:101EA000D56E12000201020118AF01D002D0010E5E
:101EB00001D0000E00D0120001C0C9FF00D0C7A0A1
:101EC00001D001D0FCD700D0C95000D0120023505F
:101ED000056E066A076A086A246E020E096E2450AF
:101EE000B0EC10F01200000ED76E000ED66E000E91
:101EF0003D6E000E3C6E000E3F6E000E3E6E1200F8
:101F00008B9C046E020E016E04505CEC0FF002C05C
:101F100001F05CEC0FF003C001F05CEC0FF08B8C77
:101F2000120001EE7BF0650EEE6AE806FDE100EEC0
:101F300032F01D0EEE6AE806FDE1000EF86E0001BB
:101F400020EF17F08B9C026EB00E016E02505CEC1D
:101F50000FF0026EFF0E016E02505CEC0FF0036E8C
:101F60008B8C035000D012008B9C026EA00E016E71
:101F700002505CEC0FF0026EFF0E016E02505CEC42
:101F80000FF0036E8B8C035000D012008B9C056EFB
:101F9000050E016E05505CEC0FF002C001F05CEC28
:101FA0000FF003C001F05CEC0FF004C001F05CEC3A
:101FB0000FF08B8C12008B9C036E030E016E03508E
:101FC0005CEC0FF002C001F05CEC0FF0036EFF0E52
:101FD000016E03505CEC0FF0046E8B8C045000D04B
:101FE00012000BD003C0D9FF04C0DAFFDF50016E2E
:101FF0003BEC10F0034A042A00D003C0D9FF04C010
:10200000DAFFDF50D8A401D001D0ECD700D0120005
:10201000086E2A0E026E085005C003F080EC0FF027
:10202000086E290E026E085006C003F080EC0FF017
:10203000086E280E026E085007C003F080EC0FF007
:1020400012000A50085C0B500958D8B001D001D0DA
:1020500004D008C00AF009C00BF00AC044F00BC05D
:1020600045F006C039F007C03AF03B6AA0EC11F029
:102070000A5000D012004A50640AD8A401D001D0FE
:1020800002D01AD019D04B50010D01017B0EF32460
:10209000D96E0101010EF420DA6E01C0DFFF4B2A78
:1020A0004B50640AD8A401D001D005D0026E000EB6
:1020B0004B6E025000D04A2A120002D001D000D04C
:1020C0004D50010D0201A00EF324D96E0201020E43
:1020D000F420DA6EDF50026E4D2A4D50020122EEDE
:1020E00019F0DF6201D001D00DD0080E020102010B
:1020F000196F800E02010201186F016E000E4D6E05
:10210000015000D0025000D0120014D0770E3C26AF
:10211000010E3D223E4A3F2A610E3E5CEA0E3F58C8
:10212000D8A001D001D006D0000E3F6E000E3E6E4A
:1021300001D000D03CC001F03DC002F0011E021EE3
:10214000014A022AD6500126D7500222780E015C9D
:10215000010E0258D8B001D001D0D8D700D012005B
:102160000950010D0E0EF324D96E000EF420DA6E24
:10217000000EDF6E34D005500F0B226E090E226464
:1021800001D001D004D02250370F226E04D022504B
:10219000300F226E00D00950010D0E0EF324D96EBF
:1021A000000EF420DA6E22C0DFFF05C00AF006C080
:1021B0000BF007C00CF008C00DF0050E05D0D8904C
:1021C0000D320C320B320A32E82EF9D70AC005F074
:1021D0000BC006F00CC007F00DC008F000D00906D7
:1021E0000928D8A401D001D0C6D700D0000E046EB3
:1021F0000E0E036EF1EC0FF01200096E200E026E4F
:1022000009500550FF0A036E80EC0FF0096E210E95
:10221000026E09500650FF0AE00B036E80EC0FF0CF
:10222000096E220E026E09500A6E000E036E0A50ED
:1022300080EC0FF0096E230E026E09500A6E000E3C
:10224000036E0A5080EC0FF0096E240E026E0950E6
:102250000750FF0A036E80EC0FF0096E250E026E28
:1022600009500850FF0AE00B036E80EC0FF0096E76
:10227000260E026E09500A6E000E036E0A5080ECA4
:102280000FF0096E270E026E09500A6E000E036EE3
:102290000A5080EC0FF01200056E000E076E05501C
:1022A00002AE01D001D009D0016C021ED8B0022AC2
:1022B000056E010E076E055000D004AE01D001D0AE
:1022C00005D0036C041ED8B0042A00D004500310BB
:1022D000D8B401D001D024D0056E010E066E055091
:1022E00005D0D89003360436062A00D004AE01D0BB
:1022F00001D0F7D701D000D00350015C0450025840
:10230000D8A001D001D005D00350015E0450025A7C
:1023100000D0D89004320332062EEED701D000D080
:102320000750D8B401D001D005D0016C021ED8B03E
:10233000022A00D001C001F002C002F000D0120059
:1023400045504410D8A401D001D002D052D051D071
:1023500044C004F045C005F0090E045C000E0558A9
:10236000D8A001D001D005D0000E056E080E046E75
:1023700000D0016E000E036E01501ED039C0F6FF72
:102380003AC0F7FF3BC0F8FF0350010D0201880E71
:10239000F324D96E0201020EF420DA6E0800F5CFA4
:1023A000DFFF010E3926000E3A22000E3B224406C2
:1023B000D8A04506032A00D00350016E026A0450DB
:1023C000015C05500258D8A001D001D0D7D704C075
:1023D00005F20201020104AD01D001D005D0880E42
:1023E00002010201046F05D0C80E02010201046F50
:1023F00000D01200800E02010201006F080E0201DF
:102400000201016F800E02010201026F020E020141
:102410000201036F000E02010201046F080E0201A7
:102420000201056F880E02010201066F020E020111
:102430000201076F400E020102010C6F080E02013B
:1024400002010D6F900E020102010E6F020E0201D9
:1024500002010F6F000E02010201146F080E02014B
:102460000201156F980E02010201166F020E0201A1
:102470000201176F800E02010201186F080E02019F
:102480000201196FA00E020102011A6F020E020171
:1024900002011B6F160E0F010F01536F1A0E0F0171
:1024A0000F01546F1A0E0F010F01556F1C0E0F0113
:1024B0000F01566F140E616E080E646E12005ED02E
:1024C000100E076E7D0E066E000E096E120E086E5F
:1024D0000EC00AF00FC00BF021EC10F05CD05BD006
:1024E000100E076E040E066E000E096E430E086E87
:1024F0000EC00AF00FC00BF021EC10F04CD04BD006
:1025000031D0100E076E9D0E066E000E096E040E81
:10251000086E0EC00AF00FC00BF021EC10F03BD09B
:102520003AD0100E076E470E066E000E096E360E7C
:10253000086E0EC00AF00FC00BF021EC10F02BD08B
:102540002AD0100E076E8F0E066E000E096E0E0E4C
:10255000086E0EC00AF00FC00BF021EC10F01BD07B
:102560001AD017D00D50000AD8B4CBD7010AD8B46E
:10257000D8D7030AD8B4E5D70CD00BD00C50010A39
:10258000D8B49ED7030AD8B4ABD7010AD8B4EAD7D7
:1025900000D0000E00D01200096E000E026E09502D
:1025A00005C003F080EC0FF0096E010E026E0950B9
:1025B0000650E00B036E80EC0FF0096E040E026E05
:1025C000095005C003F080EC0FF0096E050E026E95
:1025D00009500650E00B8009036E80EC0FF0096E85
:1025E000080E026E095007C003F080EC0FF0096E70
:1025F000090E026E09500850E00B036E80EC0FF0DC
:10260000096E100E026E095007C003F080EC0FF047
:10261000096E110E026E09500850E00B8009036E1E
:1026200080EC0FF0096E140E026E09500A6E000E57
:10263000036E0A5080EC0FF0096E150E026E095001
:102640000A6E000E036E0A5080EC0FF0096E180E31
:10265000026E09500A6E000E036E0A5080EC0FF0F5
:10266000096E190E026E09500A6E000E036E0A50B2
:1026700080EC0FF012004A6601D001D002D07BD06E
:102680007AD041504010D8A401D001D002D073D0EC
:1026900072D0020102010CAF01D001D002D06BD088
:1026A0006AD04AC00EF0070E0E6401D001D005D0EA
:1026B000086E070E0E6E085000D04A50086E096A68
:1026C000081E091E084A092A4B5008240A6E000EEB
:1026D00009200B6E640E0A24016E000E0B20026EA0
:1026E000000E046E640E036E4CEC11F001500D6E82
:1026F000086E000E0C6E085024D00D50010D010123
:102700007B0EF324D96E0101010EF420DA6E0C5019
:10271000010D0201900EF324E16E0201020EF4207D
:10272000E26EDFCFE7FF0D2A0D50640AD8A401D076
:1027300001D005D0086E000E0D6E085000D00C2A96
:1027400000D00E500C5CD8A001D001D0D6D70EC05E
:102750000DF20E504A5E020102010CAD01D001D013
:1027600005D0880E020102010C6F05D0C80E0201CF
:1027700002010C6F00D01200400EC76E220EC66E12
:10278000C9CF07F0056E000E076E05509388949C24
:10279000949E939C8B8C00D0073EFED78B9C056E3D
:1027A000C00E016E05505CEC0FF08B8C00D0073E24
:1027B000FED700D0056E0F0E026E0550066E850E18
:1027C000036E065080EC0FF0056E600E026E055031
:1027D000066E000E036E065080EC0FF0056E700E54
:1027E000026E0550066E000E036E065080EC0FF070
:1027F000056E200E026E0550066E000E036E06502A
:1028000080EC0FF0056E210E026E0550066E000E74
:10281000036E065080EC0FF0056E220E026E05501E
:10282000066E000E036E065080EC0FF0056E230E50
:10283000026E0550066E000E036E065080EC0FF01F
:10284000056E240E026E0550066E000E036E0650D5
:1028500080EC0FF0056E250E026E0550066E000E20
:10286000036E065080EC0FF0056E260E026E0550CA
:10287000066E000E036E065080EC0FF0056E270EFC
:10288000026E0550066E000E036E065080EC0FF0CF
:10289000056E2B0E026E0550066E030E036E06507B
:1028A00080EC0FF01200136E010E166E135011C063
:1028B000D9FF12C0DAFFDF50720AD8B401D001D0BC
:1028C0000FD011C0D9FF12C0DAFFDF50520AD8B4BE
:1028D00001D001D005D0136E000E166E135000D03B
:1028E00016B002D0219001D0218011C0D9FF12C0B2
:1028F000DAFFDF50136E5A0E135CD8B001D001D04E
:1029000006D02182136E080E176E135006D0219246
:10291000136E030E176E135000D0010E1124016EBA
:10292000000E1220026E17C003F0000E056E190E85
:10293000046E19EC15F00009D8A401D001D003D021
:10294000000E76D075D019C01DF01AC01EF01BC045
:102950001FF01CC020F01750136E146A010E1326CE
:10296000000E142213501124016E14501220026E16
:10297000156E010E036E1550000E056E190E046ED5
:1029800019EC15F00009D8A401D001D003D0000E35
:102990004FD04ED019C022F021B001D001D041D08B
:1029A000136E000E186E135034D01850020D1750CD
:1029B000F324136E000EF420146E020E1326000E84
:1029C000142213501124016E14501220026E156E41
:1029D000020E036E1550000E056E190E046E19ECF2
:1029E00015F00009D8A401D001D003D0000E20D0EA
:1029F0001FD01850010D060EF326000EF4221D0EF6
:102A0000F324D96E000EF420DA6E19C0DFFF182A05
:102A100000D02250185CD8A001D001D0C6D701D078
:102A200000D0000E056E1D0E046EE1EC15F000D016
:102A3000120004C0D9FF05C0DAFF000EDE6E000EE2
:102A4000DE6E000EDE6E000EDD6EDD52DD52AFD0AA
:102A500001C0D9FF02C0DAFFDF50D8A401D001D0F5
:102A600003D0000EADD0ACD004C0D9FF05C0DAFF52
:102A7000040ED890DE36DE36DE36DD36D906D906CF
:102A8000E82EF7D701C0D9FF02C0DAFF2F0EDF64AE
:102A900001D001D026D001C0D9FF02C0DAFFDF503B
:102AA000066E3A0E065CD8B001D001D01AD001C033
:102AB000D9FF02C0DAFFDF50066ED00E0624076E83
:102AC000086AFF0E082204C0D9FF05C0DAFF0750CC
:102AD000DE260850DE22000EDE22DD22DD52DD522F
:102AE00063D001C0D9FF02C0DAFF400EDF6401D01D
:102AF00001D026D001C0D9FF02C0DAFFDF50066E38
:102B0000470E065CD8B001D001D01AD001C0D9FF61
:102B100002C0DAFFDF50066EC90E0624076E086A8F
:102B2000FF0E082204C0D9FF05C0DAFF0750DE26D9
:102B30000850DE22000EDE22DD22DD52DD5234D0CE
:102B400001C0D9FF02C0DAFF600EDF6401D001D0FE
:102B500026D001C0D9FF02C0DAFFDF50066E670E33
:102B6000065CD8B001D001D01AD001C0D9FF02C094
:102B7000DAFFDF50066EA90E0624076E086AFF0E04
:102B8000082204C0D9FF05C0DAFF0750DE2608502E
:102B9000DE22000EDE22DD22DD52DD5205D0000EE7
:102BA0000FD00ED001D000D0014A022A00D0030677
:102BB0000328D8A401D001D04BD700D0010E00D0FB
:102BC0001200B4EC0FF00F6E20EE05F00450D92681
:102BD0000550DA22080EDF6401D001D003D0000EC8
:102BE0002ED12DD10FB401D001D005D0066E000E2C
:102BF000106E065016D00FB801D001D005D0066E69
:102C0000020E106E06500DD00FBC01D001D005D0C1
:102C1000066E040E106E065004D0000E10D10FD1B7
:102C200000D08B9C10504009016E5CEC0FF020EE40
:102C300004F00450D9260550DA22DF50066E06A2B1
:102C400001D001D06CD004C0D9FF05C0DAFFDECFBF
:102C500006F0DECF07F0DECF08F0DECF09F0160E6B
:102C600005D0D8900932083207320632E82EF9D75B
:102C70000650016E5CEC0FF004C0D9FF05C0DAFF0E
:102C8000DECF06F0DECF07F0DECF08F0DECF09F0B2
:102C9000110E05D0D8900932083207320632E82EDC
:102CA000F9D7030E061604C0D9FF05C0DAFFDECF40
:102CB0000AF0DECF0BF0DECF0CF0DECF0DF00E0E03
:102CC00005D0D8900D320C320B320A32E82EF9D7EB
:102CD0000A50E00B06100809016E5CEC0FF004C00E
:102CE000D9FF05C0DAFFDECF06F0DECF07F0DECF7A
:102CF00008F0DECF09F007C006F008C007F009C0F1
:102D000008F0096A0650016E5CEC0FF004C0D9FFB0
:102D100005C0DAFFDF50016E5CEC0FF036D004C066
:102D2000D9FF05C0DAFFDECF06F0DECF07F0DECF39
:102D300008F0DECF09F0040E05D0D8900932083231
:102D400007320632E82EF9D70650016E5CEC0FF020
:102D500004C0D9FF05C0DAFFDF50066E050E076E0E
:102D6000D8900636072EFCD70650016E5CEC0FF0AB
:102D7000066E000E016E06505CEC0FF0066E000E43
:102D8000016E06505CEC0FF000D020EE04F0045011
:102D9000D9260550DA22DF50066E06A001D001D0F8
:102DA0000CD020EE05F00450D9260550DA22DF5071
:102DB0004009016E5CEC0FF02ED020EE05F00450BF
:102DC000D9260550DA22DF50016E5CEC0FF0066E5A
:102DD000000E0E6E065012D00E50010D060EF32698
:102DE000000EF422F3500424D96EF4500520DA6E5C
:102DF000DF50016E5CEC0FF00E2A00D020EE05F0E3
:102E00000450D9260550DA22DF500E5CD8A001D03C
:102E100001D0E2D700D08B8C00F08B9C106601D0E3
:102E200001D005D0066E010E106E065000D0105075
:102E30008009016E5CEC0FF08B8C010E00D012004B
:102E4000BCEC13F0300ED36E000E7E6E000E7F6E63
:102E5000939A8A9A4DEC0FF0FAEC11F0306E000E56
:102E6000010101016C6F3050000E01010101656F1D
:102E7000000E0101646F00D004EC1AF085EC10F034
:102E800052EC0FF00009D8B401D001D04FD05DEC66
:102E900010F0010101016B6F010101016B510D0A7D
:102EA000D8A401D001D01DD0010101016C51010D48
:102EB0000101000EF324D96E0101010EF420DA6E37
:102EC000000EDF6E0101010E2C6E0101000E2B6E53
:102ED000B0EC1BF0306E000E010101016C6F305040
:102EE00025D0010101016B510A0AD8B401D001D0EB
:102EF0001DD0010101016C51010D0101000EF324EF
:102F0000D96E0101010EF420DA6E01016BC1DFFF01
:102F1000630E010101016C6101D001D007D00101F4
:102F200001016C2B03D002D001D000D04950D8B49D
:102F300001D001D0B1D082B401D001D0ADD0010117
:102F4000010E076E01016D0E066E69EC18F048EC7B
:102F50000FF001C066F102C067F10101010171A12A
:102F600001D001D007D0306E720E01010101696FEE
:102F7000305007D0306E740E01010101696F30507E
:102F800000D00101010171A301D001D00BD0200EAE
:102F900001010101695F306E080E01010101686FD6
:102FA000305007D0306E030E01010101686F3050C0
:102FB00000D069C101F03BEC10F06DC105F06EC1AD
:102FC00006F06FC107F070C108F068C109F0B0ECFD
:102FD00010F0010101017251056E066A076A086A64
:102FE000306E010E096E3050B0EC10F0010101019D
:102FF00071B101D001D034D0306E000E0101010159
:103000006A6F305021D0010101016A51010D060E95
:10301000F326000EF42201016D0EF324D96E010196
:10302000010EF420DA6EDF50306E3050056E066A05
:10303000076A086A316E020E096E3150B0EC10F06A
:10304000010101016A2B00D001010101725101014E
:1030500001016A5DD8A001D001D0D5D701D000D040
:1030600001010101DF51D8B401D001D00ED001011E
:1030700066C105F0010167C106F0076A086A306E93
:10308000040E096E3050B0EC10F0306E0D0E016E73
:1030900030503BEC10F000D0000EF36A4962F32A86
:1030A000F3CF30F0303A30468A503018DF0B30180A
:1030B0008A6E80B601D001D0DFD6000E646EFA0EA3
:1030C00000F0E82EFDD7FF00D7D6D6D6D5D600EF34
:1030D00008F0A2EC0FF0146E14AC01D001D005D0B2
:1030E000086E000E136E08500BD014AE01D001D044
:1030F0008AD1086E040E136E085002D084D100D01D
:1031000014C008F0D8900832D8900832D89008320D
:10311000010E081620EE04F00650D9260750DA22D8
:10312000DF500818FE0B0818DF6E14C008F0083ACC
:103130000F0E0816010E081620EE04F00650D926D0
:103140000750DA220846DF500818FD0B0818DF6E1A
:103150008B9C13509009016E5CEC0FF020EE04F094
:103160000650D9260750DA22DF50086E08A201D097
:1031700001D0A5D0086EFF0E016E08505CEC0FF078
:10318000096E09C00AF00B6A0C6A0D6A150ED89018
:103190000A360B360C360D36E82EF9D706C0D9FFA5
:1031A00007C0DAFF0AC0DEFF0BC0DEFF0CC0DEFF87
:1031B0000DC0DDFFD906D906086EFF0E016E08505E
:1031C0005CEC0FF0096E09500E6E0F6A106A116AFE
:1031D000E00E0E14086E000E0F14096E000E10148F
:1031E0000A6E000E11140B6E0D0ED89008360936BB
:1031F0000A360B36E82EF9D706C0D9FF07C0DAFF2A
:103200000850DE120950DE120A50DE120B50DD1299
:10321000DD52DD52030E0E14086E000E0F14096EFF
:10322000000E10140A6E000E11140B6E09C00BF084
:1032300008C00AF0096A086A06C0D9FF07C0DAFFA9
:103240000850DE120950DE120A50DE120B50DD1259
:10325000DD52DD52086EFF0E016E08505CEC0FF07F
:10326000096E09C00AF00B6A0C6A0D6A0CC00DF0F9
:103270000BC00CF00AC00BF00A6A06C0D9FF07C0E9
:10328000DAFF0A50DE120B50DE120C50DE120D5027
:10329000DD12DD52DD52086EFF0E016E08505CEC4F
:1032A0000FF0096E095006C0D9FF07C0DAFFDE1221
:1032B000000EDE12DE12DD12DD52DD5247D0086E46
:1032C000FF0E016E08505CEC0FF0096E09C00AF0A9
:1032D0000B6A0C6A0D6A030ED8900A360B360C3650
:1032E0000D36E82EF9D706C0D9FF07C0DAFF0AC0AD
:1032F000DEFF0BC0DEFF0CC0DEFF0DC0DDFFD90618
:10330000D906086EFF0E016E08505CEC0FF0096ED6
:10331000050E0A6ED89009320A2EFCD7095006C055
:10332000D9FF07C0DAFFDE12000EDE12DE12DD1258
:10333000DD52DD52086EFF0E016E08505CEC0FF09E
:10334000086EFF0E016E08505CEC0FF020EE05F0E9
:103350000650D9260750DA22086EFF0E016E08507B
:103360005CEC0FF00F0BDF6E20EE04F00650D92658
:103370000750DA22DF50086E08B001D001D027D004
:10338000086E000E126E085015D01250010D060E78
:10339000F326000EF422F3500624D96EF4500720D1
:1033A000DA6E086EFF0E016E08505CEC0FF0DF6EF7
:1033B000122A00D020EE05F00650D9260750DA2256
:1033C000DF50125CD8A001D001D0DFD700D08B8CA9
:1033D000136601D001D005D0086E010E136E08509F
:1033E00005D0086E020E136E085000D0086E2C0E29
:1033F000026E085013C003F0096E000E046E0950EF
:10340000C6EC0FF000D012003BEC13F062A601D026
:1034100001D0A5D1636601D001D088D1020102019B
:103420000041E8423F0B0F0B0D0AD8A401D001D098
:1034300043D1000E02010201046F000E02010201DD
:10344000046F020102018051600BD8A401D001D0A9
:103450009BD077D076D083C20CF082C20DF00201EF
:10346000020187510F6E0201020186510E6E5FEC60
:1034700012F00009D8A401D001D04FD1000E0201F2
:103480000201056FCC0E02010201046F46D145D145
:1034900082C24EF0000E02010201056FC80E020149
:1034A0000201046F3AD182C24CF0000E416E010E4F
:1034B000406E000E02010201056FC80E02010201FA
:1034C000046F2BD14CC088F2010E02010201056F7E
:1034D000C80E02010201046F20D1000E0201020198
:1034E000886F010E02010201056FC80E0201020180
:1034F000046F13D100D0000E02010201886F000E8C
:1035000002010201896F020E02010201056FC80E5D
:1035100002010201046F01D101D000D0000E0201AE
:103520000201056FC80E02010201046FF6D0000E01
:1035300002010201056FCC0E02010201046FEDD001
:10354000ECD0020102018151000AD8B4D4D7010A9B
:10355000D8B4E4D7020AD8B4E1D7060AD8B498D7C9
:10356000030AD8B478D70E0AD8B4ACD7010AD8B4B5
:103570009AD7030AD8B4B1D71B0AD8B4CFD7030A55
:10358000D8B4B9D7D4D7C9D0020102018051600B99
:10359000200AD8A401D001D0C0D078D077D0106E46
:1035A000000E116E1050070E116401D001D002D030
:1035B00014D013D01150010D0201880EF324D96EDE
:1035C0000201020EF420DA6E000EDF6E112A070EE1
:1035D000116401D001D0EED700D0080E0201020123
:1035E000056FC80E02010201046F97D0106E010E24
:1035F000486E1050000E02010201056FC80E020154
:103600000201046F8AD0106E000E126E1050060E6A
:10361000126401D001D002D01CD01BD01250010D79
:10362000320EF324D96E000EF420DA6E1250010D22
:103630000201880EF324E16E0201020EF420E26E14
:10364000DFCFE7FF122A060E126401D001D0E6D7C1
:1036500000D0070E02010201056FC80E020102012F
:10366000046F5BD000D0000E02010201056FC80E8E
:1036700002010201046F51D0000E02010201056F28
:10368000CC0E02010201046F48D047D002010201B2
:103690008151000AD8B4E7D7010AD8B480D7210AEB
:1036A000D8B4A4D7010AD8B4AED7030AD8B4DBD7AC
:1036B000E3D733D032D031D04850D8B401D001D084
:1036C0002CD0106E000E136E1050060E136401D035
:1036D00001D002D01CD01BD01350010D0201800E6E
:1036E000F324D96E0201020EF420DA6E1350010D9C
:1036F000320EF324E16E000EF420E26EDFCFE7FF1E
:10370000132A060E136401D001D0E6D700D0106E44
:10371000000E486E105001D000D0080E02010201C8
:10372000016F800E02010201006F16D06350040A7F
:10373000D8A401D001D010D04E50D8B401D001D0BF
:1037400007D04EC05CFF106E000E4E6E105000D0C1
:10375000A0EC11F001D000D06498629600D0120065
:103760002D6E070E000100019F6F2D50BBEF1FF063
:10377000496601D002D0FBEF1FF0C1D0C0D02D6E42
:103780003B0E056E2D502E6EB60E066E2E502F6E11
:10379000040E076E2F5008EC10F02D6E0D0E000178
:1037A00000019F6F2D50FBEF1FF02D6E1D0E056E5B
:1037B0002D502E6EB60E066E2E502F6E040E076E16
:1037C0002F5008EC10F02D6E0D0E000100019F6FC0
:1037D0002D50FBEF1FF02D6E0B0E056E2D502E6E33
:1037E000B60E066E2E502F6E040E076E2F5008EC8C
:1037F00010F02D6E0D0E000100019F6F2D50FBD3B8
:103800002D6E050E056E2D502E6EB60E066E2E50C8
:103810002F6E040E076E2F5008EC10F02D6E0D0E5B
:10382000000100019F6F2D50E6D32D6E050E056E31
:103830002D502E6EAC0E066E2E502F6E030E076EA0
:103840002F5008EC10F02D6E0D0E000100019F6F3F
:103850002D50D1D32D6E020E056E2D502E6EAC0E56
:10386000066E2E502F6E030E076E2F5008EC10F0D0
:103870002D6E0D0E000100019F6F2D50BCD32D6EDB
:10388000010E056E2D502E6E9B0E066E2E502F6E65
:10389000020E076E2F5008EC10F02D6E0D0E000179
:1038A00000019F6F2D50A7D32D6E000E056E2D5079
:1038B0002E6EA40E066E2E502F6E030E076E2F5026
:1038C00008EC10F02D6E0D0E000100019F6F2D50C1
:1038D00092D32D6E000E056E2D502E6E9B0E066E31
:1038E0002E502F6E020E076E2F5008EC10F02D6E2A
:1038F0000D0E000100019F6F2D507DD37CD320EE73
:1039000001F02B50D9262C50DA22DF50300AD8B4DF
:1039100036D7010AD8B449D7030AD8B45CD7010A0C
:10392000D8B46ED7070AD8B480D7010AD8B492D7D2
:10393000030AD8B4A4D7010AD8B4B6D70F0AD8B4AA
:10394000C8D759D358D357D3496601D001D053D3E0
:10395000010E2B24016E000E2C20026E2D6E020E25
:10396000036E2D500001000E056E0001620E046E04
:1039700019EC15F00009D8B401D001D03CD3030EE6
:103980002B24016E000E2C20026E2D6E020E036E93
:103990002D500001000E056E0001660E046E19EC3C
:1039A00015F00009D8B401D001D025D3050E2B2481
:1039B000016E000E2C20026E2D6E020E036E2D5035
:1039C0000001000E056E00016A0E046E19EC15F080
:1039D0000009D8B401D001D00ED362C005F066C092
:1039E00006F06AC007F008EC10F02D6E0D0E000115
:1039F00000019F6F2D50FFD2FED2FDD2010E2B246D
:103A0000016E000E2C20026E2D6E020E036E2D50E4
:103A10000001000E056E00016E0E046E19EC15F02B
:103A20000009D8B401D001D0E6D26EC002F0DBECC0
:103A30000FF000010001606F60C023F067EC0FF031
:103A40002D6E0D0E000100019F6F2D50D4D2D3D2E8
:103A5000010E2B24016E000E2C20026E2D6E020E24
:103A6000036E2D500001000E056E0001720E046EF3
:103A700019EC15F00009D8B401D001D0BCD2030E66
:103A80002B24016E000E2C20026E2D6E020E036E92
:103A90002D500001000E056E0001760E046E19EC2B
:103AA00015F00009D8B401D001D0A5D272C002F03F
:103AB00076C003F080EC0FF02D6E0D0E00010001BA
:103AC0009F6F2D5098D297D22D6E560E016E2D50AD
:103AD0003BEC10F02D6E010E236E2D5067EC0FF0B5
:103AE0002D6E010E236E2D5067EC0FF02D6E0D0E16
:103AF000000100019F6F2D507ED22D6E760E016E5B
:103B00002D503BEC10F02D6E010E236E2D5067EC06
:103B10000FF02D6E020E236E2D5067EC0FF02D6E00
:103B20000D0E000100019F6F2D5065D22D6E4E0EBF
:103B3000016E2D503BEC10F0FF0E056EFF0E066E71
:103B4000000E076E000E086E2D6E040E096E2D50CD
:103B5000B0EC10F02D6E0D0E000100019F6F2D5086
:103B60004AD2496601D001D046D22D6E0F0E026EA8
:103B70002D502E6EE00E036E2E502F6E000E046E32
:103B80002F50C6EC0FF073EC0FF0010E496E2D6E46
:103B90000D0E000100019F6F2D502DD22CD24966D1
:103BA00001D001D028D22D6E0F0E026E2D502E6E38
:103BB000E00E036E2E502F6E400E046E2F50C6EC9A
:103BC0000FF0010E496E2D6E0D0E000100019F6F6A
:103BD0002D5011D210D2496601D001D00CD22D6ED9
:103BE0000F0E026E2D502E6EE00E036E2E502F6EB5
:103BF000600E046E2F50C6EC0FF0020E496E2D6E53
:103C00000D0E000100019F6F2D50F5D1F4D14950E8
:103C1000D8B401D001D0EFD12D6E0F0E026E2D5011
:103C20002E6EE00E036E2E502F6E800E046E2F50FF
:103C3000C6EC0FF0000E496E2D6E0D0E0001000156
:103C40009F6F2D50D8D1D7D102D001D000D04904D8
:103C5000D8A401D001D0CFD12BC011F02CC012F0CC
:103C600053EC14F00009D8B401D001D0C4D12BC05A
:103C7000D9FF2CC0DAFFDF502D6E5A0E2D5CD8B064
:103C800001D001D007D02D6E5A0E016E2D503BECA5
:103C900010F007D02D6E7A0E016E2D503BEC10F017
:103CA00000D02D6E0D0E000100019F6F2D50A3D18D
:103CB000A2D1A1D12D6E2D0E026E2D50DBEC0FF096
:103CC000000100019E6F2D6E000E00010001616F6A
:103CD0002D50000100019EA101D001D004D00001AF
:103CE0000001618500D0000100019E51C00BD8B4D5
:103CF00001D001D004D000010001618700D0000193
:103D000000019E51180BD8B401D001D004D000019D
:103D10000001618B00D0000100019EAB01D001D0F9
:103D200004D000010001618F00D02D6E460E016E9F
:103D30002D503BEC10F061C023F067EC0FF02D6EBE
:103D40000D0E000100019F6F2D5055D1010E2B2447
:103D5000016E000E2C20026E2D6E010E036E2D5092
:103D60000001000E056E00017A0E046E19EC15F0CC
:103D70000009D8B401D001D03ED1000100017D512D
:103D80007A117B117C11D8A401D002D0010E01D090
:103D9000000E01010101DF6F2D6E0D0E000100010B
:103DA0009F6F2D5028D127D1496601D001D023D152
:103DB000010E2B24016E000E2C20026E2D6E020EC1
:103DC000036E2D500001000E056E00017E0E046E84
:103DD00019EC15F00009D8B401D001D00CD1030EB4
:103DE0002B24016E000E2C20026E2D6E020E036E2F
:103DF0002D500001000E056E0001820E046E19ECBC
:103E000015F00009D8B401D001D0F5D0050E2B244F
:103E1000016E000E2C20026E2D6E020E036E2D50D0
:103E20000001000E056E0001860E046E19EC15F0FF
:103E30000009D8B401D001D0DED0070E2B24016ECA
:103E4000000E2C20026E2D6E020E036E2D5000010E
:103E5000000E056E00018A0E046E19EC15F00009C3
:103E6000D8B401D001D0C7D07EC005F082C006F022
:103E700086C007F08AC008F0FDEC10F02D6E0D0E24
:103E8000000100019F6F2D50B6D0B5D0B4D0496667
:103E900001D001D0B0D0010E2B24016E000E2C20D9
:103EA000026E2D6E020E036E2D500001000E056E87
:103EB00000018E0E046E19EC15F00009D8B401D083
:103EC00001D099D0030E2B24016E000E2C20026E1F
:103ED0002D6E020E036E2D500001000E056E0001C6
:103EE000920E046E19EC15F00009D8B401D001D07F
:103EF00082D0050E2B24016E000E2C20026E2D6E3A
:103F0000020E036E2D500001000E056E0001960E8C
:103F1000046E19EC15F00009D8B401D001D06BD0B3
:103F2000070E2B24016E000E2C20026E2D6E020E49
:103F3000036E2D500001000E056E00019A0E046EF6
:103F400019EC15F00009D8B401D001D054D08EC0BE
:103F500005F092C006F096C007F09AC008F0CCECCD
:103F600012F02D6E0D0E000100019F6F2D5043D0F9
:103F700042D041D040D02BC0D9FF2CC0DAFFDF5057
:103F8000430AD8B444D6050AD8B494D6010AD8B4A2
:103F900035D50B0AD8B41FD6010AD8B478D7030A8E
:103FA000D8B4C4D5010AD8B4DCD51D0AD8B44FD6CC
:103FB000010AD8B4B8EF1BF0070AD8B448D6020AF1
:103FC000D8B482D5010AD8B443D50D0AD8B4BED628
:103FD000360AD8B4E4D5010AD8B4E6D61F0AD8B454
:103FE00036D6010AD8B4B0D4070AD8B430D6020AFB
:103FF000D8B483D500D09FC001F03BEC10F0120084
:00000001FF
