:020000040000FA
:06000000B0EF07F0120052
:020006000000F8
:0600080004EF08F01200F5
:060018000CEF08F01200DD
:02001E000201DD
:10002000A36BA769A869A969A66B010EAA6F120044
:10003000D9CFE6FFE1CFD9FFE6520201A3511FE17C
:10004000020108BF1BD0400EE66EA40EE66E000E45
:10005000E66EA6EC05F0E552E552E5520201010E0E
:10006000A36FDF6A400EDF5C09E2DF50EA6A600FCF
:10007000E96E000EEA22EF6ADF2AF4D758D10001B8
:10008000A451080A01E140D10F0A01E1F5D0010AAB
:1000900001E1EAD0030A01E18ED0010A59E0070A22
:1000A0004CE0010A01E043D10001020E606F000143
:1000B0003A0E616F0001010E626F0001010E636F65
:1000C0000001646B100E656F666B676B0001686BF7
:1000D000300E696F6A6B6B6B0001030E6C6F000171
:1000E0006D6B6E6B300E6F6F706B00010E0E716F6B
:1000F000726B736B746B0001010E756F0001766B90
:10010000776B200E786F796B0001080E7A6F7B6B2E
:100110007C6B7D6B00017E6902010CBF0DD0400E2F
:10012000E66E600EE66E000EE66E76EC05F0E552C9
:10013000E552E5520201A36BFAD00201010EAA6F4B
:100140000001A55102E10201AA6B0201A36BEFD0ED
:10015000400E0201A46FA56B0201000EA45D010E0A
:10016000A5591FE20400A4C200F0A5C201F0026A72
:10017000060E1F0B00C0F6FF01C0F7FF02C0F8FF1C
:1001800006E0D890F636F736F836E806FAE1940E2F
:10019000A66E56D900EC06F00201A42B000EA52392
:1001A000DBD7F66AF76A200EF86E940EA66E48D971
:1001B0000201A36BBCD0300E0001A75D07E1020174
:1001C000AA5101E11AD90201A36BB1D0E86802017A
:1001D000A71905E1E868A81902E1E868A91906E18C
:1001E000A5C0A7F2A6C0A8F2A7C0A9F2A70EE96E03
:1001F000020EEA6EEE500001A51908E1EE50000172
:10020000A61904E1EE500001A71900E12AE1DF6A16
:100210000001A951DF5C25E23A0E0001D880A95502
:10022000DF24EA6AAA0FE96E000EEA22EF50E66EBA
:100230000201A651EA6AAB0FE96E020EEA22E5520C
:10024000E750EF6E0201A62B0201A72B000EA82398
:10025000000EA923100E0201A65D01E16DD8DF2A70
:10026000D7D70201A36B63D067D80201A769A86939
:10027000A9690201A36B5BD00001070E606FA5C0E6
:1002800061F0A6C062F0A7C063F0A8C064F0A9C086
:1002900065F0A5C0F6FFA6C0F7FFA7C0F8FFDF6AAC
:1002A0000001A951DF5C1FE2F00E0001A75D01E132
:1002B00018D00900300EF85C08E1050EF65C01E18B
:1002C000F568080EF65C01E1F5683A0E0001D88089
:1002D000A955DF24EA6A660FE96E000EEA22F5CF1F
:1002E000EFFFDF2ADDD702010CBF0DD0400EE66E16
:1002F000600EE66E000EE66E76EC05F0E552E55215
:10030000E5520201A36B13D06492646ADF6AFF0EA8
:10031000DF5C09E2E868E85004E0E80600D000D0BD
:10032000FAD7DF2AF4D7CD6AB16AFF0000D0E552D0
:10033000E552E7CFD9FF12000001A16BA6C200F081
:10034000016A026A00500201A75DF66E01500201C7
:10035000A859F76E02500201A959F86E0F0EF61453
:100360000001A26FF00EF6160001A06B100E000146
:10037000A05D1FE20001A25115E10201A6510FE0AC
:100380000001A151EA6AAB0FE96E020EEA22EF50BA
:10039000F56E0D000001A12B0201A60702D0F56841
:1003A0000D0004D0F5680D000001A2070001A02B8C
:1003B000DDD70A00A40EA66E43D80001A06B02018F
:1003C000A6510001A05D18E20001A1510001A02585
:1003D000EA6AAB0FE96E020EEA22EF50E66E000108
:1003E000A051EA6AAB0FE96E020EEA22E552E7502D
:1003F000EF6E0001A02BE3D71200A5C0F6FFA6C048
:10040000F7FFA7C0F8FF0001A36B0001A95100018D
:10041000A35D15E23A0E0001D880A9550001A3257D
:10042000EA6AAA0FE96E000EEA22EF50F56E0C00A0
:10043000C40EA66E05D809000001A32BE6D7120052
:10044000F29E550EA76EAA0EA76EA682A6B2FED782
:04045000A69412005C
:0C0454007DD9E652635032E1629602014D
:1004600000513C0BE842E8420D0828E1180E021941
:1004700023E1020E031920E1100E026F020E036F3A
:10048000DF6ADF50006E016A080E005C000E015842
:1004900013E2DF50EA6A180FE96E020EEA22EF500B
:1004A000E66EDF50EA6A100FE96E020EEA22E552AC
:1004B000E750EF6EDF2AE5D70ED80AD03FD808D034
:1004C000040E635C03E1629650D802D0000E01D0A6
:1004D000010EE55242D13CD9E652020104BF046B41
:1004E0000201FD6BF56BF66BFB6BFC6BB9EC03F07B
:1004F000DF6ADF50006E016A010E005C000E0158D9
:100500001AE20201F65117E1F76ADF34FE0BF73603
:10051000F66EA00EF6260E0EF7220900F5CF00F0BB
:100520000800F5CF01F004D001C0FAFF0050F96EC9
:10053000FBDFDF2ADED7B7D8E5520FD1020E02016A
:10054000F55D0EE184D80201180E026F020E036FF2
:10055000080E016F00BD02D0C80E05D0880E03D072
:10056000DBD8E7D88C0E006F1200040E0001E45DAA
:100570000CE112C25CFF0F015C51000803E20001B4
:10058000050E02D00001030EE46F0201F50510E133
:1005900011D8020E0201FD5D03E10201840E06D0B6
:1005A000020104BD02D0C80E01D0880E046F1200F3
:1005B0008CEF03F0CDD8020EE1260201080EFB5DA0
:1005C000000EFC590DE2FBC2DEFFFCC2DDFFFD5157
:1005D00002E1010E03D0FD0506E1020EFD6F03D01E
:1005E000080EDE6EDD6A020104930491010EDB50F9
:1005F0000413DFCF05F2000EDB500201FB5F010E9A
:10060000DB50FC5B180EF96F020EFA6F0001E5A3D8
:100610000CD097D815E0F7C2F6FFF8C2F7FF080034
:10062000F5507FD8F6E2DB06F4D78BD809E0F7C2A5
:10063000E9FFF8C2EAFFEF5074D8F7E2DB06F5D71E
:10064000020EE15C02E2E16AE552E16E86D080D8FA
:10065000020EE126030E02010015E76E010EE7CF40
:10066000DBFF01C2DFFFDE500201FB27DD50FC2370
:10067000180EF76F020EF86F64D80EE0F7C2E9FFAC
:10068000F8C2EAFFEF50F9C2E9FFFAC2EAFFEF6EE3
:1006900068D8F2E2DB06F0D7020EE15C02E2E16A22
:1006A000E552E16E5AD064980201F65105E141D855
:1006B000840E006F02011DD0020110AF1CD0020198
:1006C000FB510201165D0201FC510201175904E2BF
:1006D00016C2FBF217C2FCF26DDF0201010EF56FCC
:1006E00028D8800E006F0201180E066F020E076FE9
:1006F000C80E046F12000201020EF56F0201056BB5
:10070000C80E046F0201080E016F180E026F020E70
:10071000036FC80E006F12000201F56B0201046B3B
:100720001200F9C2E9FFFAC2EAFFEF6E0201B1EF6F
:1007300003F00201080E016F100E026F020E036F2C
:100740001200D9CFE9FFDACFEAFFEE50ED10120028
:10075000D9CFE6FFE1CFD9FF1200E552E7CFD9FFAD
:100760001200F92B000EFA23F72BF823DF06010EF7
:02077000120075
:0E07720002011051600BE842E842E842E84202
:10078000E842000901E012001151070A40E00B0A9B
:100790003EE0070A33E0010A23E00B0A1FE0020AE9
:1007A0001DE0030A19E0080A10E0010A0CE00F0A34
:1007B00008E0030A01E0120012D90001040EE46F00
:1007C000120008EF04F03FEF04F009D90201E60E31
:1007D000F76F000EF86F0CD05AEF04F08CEF04F0B6
:1007E00002D90201F76FF86BE70EF727000EF82326
:1007F0000001E5930201010EFB6F1200F4D8EA6AD2
:10080000E70FE96E000EEA2212C2EFFF120012009B
:10081000800E0201105D32E11351030A1FE0010A4C
:100820000AE0030A29E1DBD80201E00EF76F0D0EA2
:10083000F86F120E1ED0B2D8960EF6260E0EC0D845
:10084000020E0201F76AF725F66EF851F722090049
:10085000F5CFFBF20A00F5CFFCF20ED09FD89A0E2E
:10086000F6260E0EADD8F7C2F6FFF8C2F7FF080065
:10087000F5500201FB6FFC6B0001E5831200AFD85D
:10088000070EE66E540EE66E0F0EA2D8010EE66E4F
:10089000E70EE66E000E9CD812C2E6F0020112517D
:1008A00004E10001050EE46F12000001060EE46F82
:1008B00060EF05F00201186B196B020110511F0B5C
:1008C000020A0FE0030A0BE0010A18E188D80201CE
:1008D00018810001E5A112D0020118830FD07FD842
:1008E0000DD050D801E0010E62D8F9C2E9FFEA6EDE
:1008F000EF50040B03E00201010E186F0201F60530
:100900000AE10201180EF76F020EF86F0001E5937D
:100910000201020EFB6F1200020112050EE11051DE
:100920001F0B00090AE15BD8030E0201115D03E110
:100930000001E58102D00001E5910201125121E19F
:1009400010511F0B02081DE114510F0B000919E093
:1009500019D801E0010E2BD8030E0201115D02E14E
:10096000840E03D014AF07D0400EF9C2E9FFFAC2DB
:10097000EAFFEF6E1200880EF9C2E9FFFAC2EAFF41
:10098000EF6E120030D80F0B080DF350016A000F04
:10099000006E020E01221451800B120020D80201B9
:1009A0001251F66EF76AD890F636F7361200040D3B
:1009B000F35002010024F96F000E0120FA6F1200BB
:1009C000F7220900F5CFF7F20A00F5CFF8F212008E
:1009D000E66E78EC06F0E552E552E55212000201AF
:0E09E000010EF66F1200FBDF0201145112002F
:0209EE00020104
:1009F00010511F0B010801E01200145101E0120018
:100A0000060E115D24E11351230A1FE0010A0DE0D7
:100A1000030A1BE1DCD80001E60505E10201040E32
:100A2000F76F0E0EF86F090E0DD0D1D80001E60554
:100A300005E10201790EF76F0E0EF86F0001E60571
:100A400004E11D0E0201FB6FFC6B0001E583020156
:100A50001051600BE842E842E842E842E8420108EF
:100A600001E0120011510B0A25E0080A17E0090AFB
:100A700011E0080A09E00B0A05E0080A01E012008B
:100A80005EEF05F05FEF05F0A2D80201E80EF76F08
:100A9000000E09D09CD813C2E8F0120098D80201C9
:100AA000E90EF76F000EF86F0001E5930201010EE9
:100AB000FB6F12008CD812C2E9F012001200120073
:100AC0000001EA6B0F011E0E546F0201400E096F08
:100AD000200E0A6F020E0B6F880E086F0201600E67
:100AE0000E6F020E0F6F400E0C6F1200D9CFE6FF93
:100AF000E1CFD9FFE652FC0EDB50400805E2400E84
:100B0000F36EFC0EF3CFDBFFDF6AFC0EDB50DF5C25
:100B10000FE2DF5050D8EF50E66EDF50EA6A600F08
:100B2000E96E020EEA22E552E750EF6EDF2AEDD7BA
:100B3000FC0EDBCF0DF2400E02010C170C7D880E6F
:100B40000C13E552E552E7CFD9FF1200D9CFE6FFEB
:100B5000E1CFD9FF0001EA6B020108BF26D0FC0EED
:100B6000DBCF00F00951D880005403E2FC0E09C22B
:100B7000DBFF0001EA6BFC0EDB50EA5D0FE2EA519D
:100B8000EA6A200FE96E020EEA22EF50E66EEA51A1
:100B900012D8E552E750EF6EEA2BEDD70201400E76
:100BA000096F0817087D880E08130001EA51E55205
:100BB000E7CFD9FF1200E76EFD0EDBCFE9FFFE0E97
:100BC000DBCFEAFFE750E926000EEA22120002011D
:060BD000020EF66F120098
:0A0BD60064A60CD80001E40508E154
:100BE00064BA06D0626A606A60806088020EE46F50
:100BF0001200646A606A64860001010EE46F1200EC
:100C00000001E45101E1120062B425D864B212007F
:100C100062B03AD862B817D862BA24D8030E00017D
:100C2000E45D01E212000201FE6B040EFE5D0AE2C9
:100C300062A608D02AEC02F0000901E162960201E6
:100C4000FE2BF3D71200608462986482A194A08482
:100C50000300A09412006492609462A402D0629493
:100C6000FCD712000F0153A10DD0800E0201005DD0
:100C700007E1840E0201045D03E102018C0E006FA6
:100C80000F015391629A12000F015F6B626A0F01AC
:100C90009F0E5B6F7B0E606E0F015C6B070EE66E46
:100CA000540EE66E0F0EE66E23D8E552E552E5527D
:100CB0000F01160E536F62A605D0629600D000D0C9
:100CC0000000F9D764988CEC03F00201080E016F64
:100CD0000201100E026F020E036F02018C0E006FF4
:100CE0000001E5910001E66B0001030EE46F1200C4
:100CF000D9CFE6FFE1CFD9FFFD0EDBCFE9FFFE0E36
:100D0000DBCFEAFFFC0EDB5004E0EE6AFC0EDB06F4
:0A0D1000F9D7E552E7CFD9FF120032
:060D1A0080A602D000EFEC
:100D200008F01200D9CFE6FFE1CFD9FFE652C95053
:100D3000DF6EFE0EDB50C96EC7A0FED7E552E5524E
:100D4000E7CFD9FF1200D9CFE6FFE1CFD9FFE652B6
:100D5000DF6A80A602D000EF08F0400EC76E220EB8
:100D6000C66E3F0E946E939C8B8CDF2A01E0FDD7FC
:100D70008B9CC00EE66ED6DFE5528B8CDF2A01E03D
:100D8000FDD78B9C020EE66ECDDFE5520F0EE66EB0
:100D9000C9DFE552850EE66EC5DFE5528B8C300E5D
:100DA000D36E10D819D8060E0001E45D05E1645039
:100DB000020B02E118EC00F0F5D7E552E552E7CF5F
:100DC000D9FF1200140E616E0001E46B0001E56BA7
:100DD0000001E66B0FEF00F0EBEC05F000EF06F022
:100DE0001201000200000008D8043C0002000102C9
:100DF000000109022900010100C0320904000002BB
:100E000003000000092111010001221D00070581D6
:100E100003400001070501034000010403090434F5
:100E2000034D006900630072006F00630068006991
:100E3000007000200054006500630068006E006FC1
:100E4000006C006F0067007900200049006E0063AD
:100E5000002E00260348004900440020005500539E
:100E6000004200200042006F006F0074006C006FB1
:100E70000061006400650072000600FF0901A10125
:100E800019012940150026FF0075089540810019B9
:100E90000129409100C0F20DF20D1B0E1F0E530EE2
:020EA000EE0959
:0E0EA200060EF66E000EF76E000EF86E0201E0
:100EB0000900F550F06F0900F550F16F03E1F0679C
:100EC00001D03DD00900F550EB6F0900F550EC6FF3
:100ED0000900F550ED6F09000900F550E96E0900B1
:100EE000F550EA6E090009000900F550EE6F09009F
:100EF000F550EF6F09000900F6CFF2F2F7CFF3F2E9
:100F0000F8CFF4F2EBC2F6FFECC2F7FFEDC2F8FF48
:100F10000201EE5302E1EF5307E00900F550EE6ED7
:100F2000EE07F8E2EF07F9D7F2C2F6FFF3C2F7FFD8
:100F3000F4C2F8FF0201F007000EF15BBFD7120008
:100F4000000EF36E00EE00F0030E01D81200EA600E
:100F500002D0EE6AFCD7F350E9601200EE6AFCD7CB
:100F600011EE00F021EE00F0F86A049C51EC07F05D
:0C0F70008DEC06F0A3EC06F0FBD712009D
:020000040030CA
:0100000000FF
:010001007589
:0100020023DA
:010003001EDE
:0100050000FA
:010006008970
:0100080003F4
:01000900C036
:01000A0003F2
:01000B008074
:01000C0003F0
:01000D0040B2
:00000001FF
